:020000040800F2
:10000000B805002049010008692500083B1D0008CB
:1000100035250008350B0008F72F00080000000008
:100020000000000000000000000000008D2B000810
:100030007B0B000800000000652B00088F2B0008D8
:100040006301000863010008630100086301000800
:1000500063010008630100086301000863010008F0
:100060006301000863010008DD0B0008630100085C
:1000700063010008630100086301000863010008D0
:1000800063010008630100086301000863010008C0
:10009000630100086301000863010008E30B000826
:1000A00063010008630100086301000863010008A0
:1000B00063010008F52B00086301000863010008D4
:1000C0006301000863010008630100086301000880
:1000D0006301000863010008630100086301000870
:1000E0006301000863010008630100086301000860
:1000F0006301000863010008630100086301000850
:10010000630100086301000863010008630100083F
:10011000630100086301000863010008012C000866
:10012000630100086301000863010008630100081F
:10013000DFF810D000F086FC004800471D4B000897
:10014000AFF30080B8050020064880470648004706
:10015000FEE7FEE7FEE7FEE7FEE7FEE7FEE7FEE777
:10016000FEE7FEE7F12B0008310100082DE9F04120
:100170000024061B254671F1000605DA012400273C
:10018000D0EB070067EB0101161E73F1000605DADC
:100190000027D2EB0702012567EB030300F03CFBCD
:1001A00086460E4617469C46AC4204D00025D0EB4E
:1001B000050E65EB010624B10020D2EB000760EBD1
:1001C000030C704631463A466346BDE8F081202A6A
:1001D00004DB203A21FA02F00021704721FA02F3F1
:1001E000D040C2F120029140084319467047D2B274
:1001F00001E000F8012B491EFBD270470022F6E710
:1002000010B513460A4604461946FFF7F0FF20468C
:1002100010BD30B504460020034600E05B1C93424D
:1002200003D2E05CCD5C401BF8D030BDF0B480EA76
:100230000102D40F4200B2EB410F02D2024608463F
:1002400011464A0042D0C30DDDB2C1F3C752AD1A08
:10025000202D35DAC1F3160141F4000204B15242F7
:10026000C5F1200602FA06F12A411044B3EBD05F33
:1002700023D0C4B1012DA0EBC35009DCF0BC4FF07A
:10028000004202EAC352DBB200F5000000F01FBBDF
:10029000400000F1807000EBC350A0F1807040EA94
:1002A000D170490009E0490841EAC071A0EBC35090
:1002B00000F50000400800EBC350F0BC00F0FEBAAF
:1002C0006142012202EB4101001BF6E7F0BC7047DE
:1002D00081F00041AAE780F00040A7E780EA010230
:1002E00010B502F00043400022D04A001FD0010E9A
:1002F00001EB1261C0F35600C2F3560240F4000055
:1003000042F40002A0FB022000047F39140400D054
:10031000401C50EA124001D44000491EC2B20C06F3
:1003200004EBD010401C4008802A02D003E00020DB
:1003300010BD20F00100002900DA0020184310BD94
:1003400030B480EA010202F0004530F0004221F0B2
:10035000004013D090B1C30DD40DC2F31601C0F309
:100360001600E41A41F4000140F400027D34914289
:1003700001D3641C00E04900002C02DA30BC0020EC
:1003800070474FF400000023914201D3891A0343C0
:1003900040084FEA4101F7D151B1914202D14FF0EB
:1003A000004105E002D24FF0010101E06FF00101D0
:1003B00003EBC450284430BC00F080BA420005D0A2
:1003C000C0F3C7525242914201DC0020704700EB5B
:1003D000C15070472DE9FE4F804681EA0300C00FEF
:1003E0000C46009021F0004123F00045B8EB0200DC
:1003F000A94105D24046214690461C460B4602467E
:1004000023F00040104347D0270DC7F30A00C3F381
:100410000A510290401A019040286BDAC3F313008E
:1004200040F4801B0098924620B10023D2EB030ACF
:1004300063EB0B0B01985946C0F14002504600F0A7
:100440001CFA06460D4650465946019A00F024FA19
:1004500010EB08006141002487EA115284EAE77337
:100460001A4340D0009A62B3019A012A4FEA075218
:1004700015DC001B61EB02014FF0004202EA07525B
:10048000CDE90042001C41F5801132462B4600F0B8
:100490005BFA03B0BDE8F08F40462146F9E7001B48
:1004A00061EB0201001C41F5801300185B4120182C
:1004B000A2F5001747EB030140EAD570B6196D416C
:1004C00011E06D084FEA360645EAC0754FEA07525B
:1004D000001B61EB0201001C41F5801149084FEA45
:1004E00030000019514132462B4603B0BDE8F04FB1
:1004F00000F01BBA0098012240000023D0EB02025A
:1005000063EBE073009821464FEAE074B8EB00001B
:1005100061EB0401E9E783F000435BE781F0004110
:1005200058E72DE9FE4F81EA030404F0004421F06E
:10053000004100944FF0000B23F0004350EA010407
:100540005ED052EA03045BD0C3F30A54C1F30A55E8
:100550002C44A4F2F3340194A0FB0254C1F3130120
:1005600041F48011C3F3130343F4801301FB0244ED
:1005700000FB034E840A970A44EA815447EA8357F2
:10058000A4FB076802958D0A05FB07854FEA932CAB
:1005900004FB0C542705029D4FEA065847EA16371C
:1005A000B5EB08056EEB070C870E920E47EA811734
:1005B00042EA8312A7FB0201B6EB0B0164EB0004D5
:1005C0002B0D43EA0C335E1844EB1C50DA465146BF
:1005D000E7FB0201C5F313044FEA0B3343EA14535C
:1005E0004FEA0432019C43EA0603A4F10C0402948E
:1005F000009CCDE900B400F0A7F903B0BDE8F08F8E
:1006000000200146F9E72DE9F04D81EA030404F0EA
:10061000004B21F0004514464FF0000A23F0004142
:1006200050EA050220D054EA01021DD0C5F30A5752
:100630000246C5F31303C1F31300C1F30A5640F495
:10064000801543F48013A7EB0608101BD64608F26A
:10065000FD3873EB050002D308F1010801E09218A0
:100660005B41B8F1000F03DA00200146BDE8F08DD0
:1006700000204FF48011064684460EE0171B73EBF2
:10068000050705D3121B63EB050306434CEA010C77
:1006900049084FEA300092185B4150EA0107EDD15A
:1006A00052EA030012D082EA040083EA05010843FB
:1006B00005D0101BAB4106D20122002306E0002228
:1006C0004FF0004302E06FF0010253101AEB0600F6
:1006D0004CEB085110EB0A0041EB0B01BDE8F04D6B
:1006E00000F023B9C10F80EAE0700844CA079623DE
:1006F000002100F0ECB896230022114600F0E7B884
:100700000EB5C10F80EAE0700844CA07002140F22C
:1007100033438DE80E000A460B4600F015F903B08E
:1007200000BD00F0004220F00040C10DC0F31600F3
:1007300040F400007F2901DA00207047962903DC8D
:10074000C1F19601C84001E096398840002AF4D0F2
:100750004042704720F00040C10DC0F3160040F445
:1007600000007F2901DA00207047962903DCC1F1DF
:100770009601C840704796398840704770B5C1F3FC
:100780000A5201F000450024C1F3130140F2FF3387
:1007900041F480119A4201DA002070BD40F23343E7
:1007A0009A42A2F2334203DC5242FFF710FD00E00E
:1007B00090402C43F1D0404270BD00F0004230F038
:1007C00000400AD0C10D01F56071C0F3160042EA85
:1007D0000151C2084007114370470020014670478D
:1007E00001F0004330B421F0004150EA010206D08C
:1007F0000A0DA2F56072C1F31301002A02DC30BCBD
:1008000000207047440F44EAC104C100E01830BC26
:1008100000EBC25000F052B82DE9F05F0546002011
:1008200092469B4688460646814640241BE0284661
:10083000414647462246FFF7CAFC53465A46C01A6D
:10084000914110D311461846224600F016F82D1A91
:1008500067EB01084F4622460120002100F00DF809
:1008600017EB00094E41201EA4F10104DFDC4846CD
:1008700031462A464346BDE8F09F202A04DB203A51
:1008800000FA02F1002070479140C2F1200320FAE3
:1008900003F3194390407047202A06DBCB17203A18
:1008A00041FA02F043EAE07306E041FA02F3D04075
:1008B000C2F1200291400843194670470029A8BFA1
:1008C0007047401C490008BF20F00100704710B479
:1008D000B0FA80FC00FA0CF050EA010404BF10BC2E
:1008E000704749B1CCF1200421FA04F411FA0CF15B
:1008F00018BF012121430843A3EB0C01CB1D4FEA94
:1009000000614FEA102042BF002010BC704700EB8E
:10091000C35010440029A4BF10BC7047401C4900BC
:1009200008BF20F0010010BC704710B5141E73F111
:10093000000408DA401C41F1000192185B411A439F
:1009400001D120F0010010BD2DE9F04D92469B46EB
:1009500011B1B1FA81F202E0B0FA80F22032904691
:10096000FFF78BFF04460F4640EA0A0041EA0B01FD
:1009700053465A46084313D0114653EA010019D092
:10098000C8F140025046FFF722FC05460E4650468D
:1009900059464246FFF771FF084305D0012004E0A5
:1009A00020463946BDE8F08D0020054346EAE07652
:1009B0002C4337430A986305E40AA0EB08000022A1
:1009C000FD0A44EA47540A3002D500200146E9E70F
:1009D000010510196941DDE9084500196941BDE8C3
:1009E000F04DA2E770B521F0004303430CD0C1F3F2
:1009F0000A550024D5EB040564EB0403D617AD1AA1
:100A0000B34102DB0020014670BD201841EB0251CA
:100A100070BD000030B5041E71F1000404DB4FF01E
:100A20000044404264EB0101141E73F1000405DB35
:100A30001C464FF00043524263EB04038B4208BF55
:100A4000824230BD064C074D06E0E06840F00103ED
:100A500094E8070098471034AC42F6D3FFF76CFBDC
:100A6000B0730008D07300082DE9F04D00231A463A
:100A70001B1A8A4103DB00200146BDE8F08DC1F35B
:100A80000A52C1F3130141F480154FF0000BD10756
:100A900002D100186D41521E0027044640F2FF119A
:100AA000384601EB620A3E468046024600204FF47B
:100AB0008011FFF78CFBC2197141BB1846EB010096
:100AC000B4EB030C75EB000C04D3E41A65EB0005E2
:100AD00017460E46241908F101006D41804634285E
:100AE000E3DDF91946EB0600091BA84103D24FF0DC
:100AF000FF32134601E0002213461BEB070046EBD2
:100B00000A51BDE8F04DFFF710BF000070B5084E68
:100B10000446B068FFF7E2FB054621463068FFF760
:100B2000DDFB2946FFF782FBBDE87040FFF7F9BD0A
:100B30009C010020FEE710B505F052F84F2005F0AB
:100B400013F804F07BFF012004F0D2FF044605F007
:100B500073F8204610BD10B5044605F041F8482052
:100B600005F002F804F06AFF204604F0FDFF04F0EF
:100B700065FFBDE8104005F05FB8704710B56E28FE
:100B80000FD0134C0146662920681CD00ADC562978
:100B900015D0572905D05E2903D10E49FFF798FBE0
:100BA000206010BD6729FCD06F29FAD07629F8D1D2
:100BB00001F0D2FC0020E0602061606110BDBDE862
:100BC000104001F0C1BC0449FFF730FBE8E700002A
:100BD0009C0100200000A04000002041102000F0F7
:100BE00037B810B5402000F033F8BDE81040802041
:100BF00000F02EB872B6FEE770B5044600F042F978
:100C00000546601C02D004480078044400F03AF91C
:100C1000401BA042FAD370BD280000200A4980285A
:100C200009D040280BD0102808D1012008700421D9
:100C3000064800F01AB9C888401CC8807047088967
:100C4000401C088170470000000000200014014093
:100C5000044910B50A68024202D00860FFF7DEFFBF
:100C600010BD0000140401402DE9F84FDFF8C891D1
:100C7000002409F1040A0AF1040B23460F270BF1A3
:100C8000040ED1E00125A54006EA0502AA4276D16C
:100C9000DFF8A8C14E68A6EB0C0866452BD00DDC2A
:100CA000032E34D005DC36B3012E19D0022E2FD1FD
:100CB0001BE0112E16D0122E2AD119E0B8F5881F8C
:100CC00019D006DCB8F5803F15D0B8F5801F1FD1CC
:100CD00011E0B8F5001F0ED0B8F5041F18D10AE0D6
:100CE000CB6815E0CB681B1D12E0CB6808330FE022
:100CF000CB680C330CE08B682BB1012B4FF0080351
:100D000003D0456104E0042302E0056100E0002314
:100D1000FF2A01D8064601E000F104064FEA8405E7
:100D200001D9A5F12005D6F8008007FA05FC28EACC
:100D30000C0803FA05F548EA0508C6F800804D6876
:100D4000ED0070D53E4DAE6946F00106AE61AD696D
:100D500024F0030605F0010500953A4D06EB050C5D
:100D6000DCF80850A607360F07FA06F825EA08054A
:100D7000DFF8D480404503D14FF0000825E052E071
:100D8000DFF8C880404502D14FF001081DE0DFF8D0
:100D9000C080404502D14FF0020816E0DFF8B48071
:100DA000404502D14FF003080FE0DFF8AC8040452A
:100DB00002D14FF0040808E0DFF8A080404502D1DE
:100DC0004FF0050801E04FF0060808FA06F848EA77
:100DD0000508CCF808804D68D9F80060ED034D4651
:100DE00001D5164300E096432E604D68DAF80060A6
:100DF000AD03554601D5164300E096432E604D687D
:100E0000DBF80060ED025D4601D5164300E0964335
:100E10002E604D68DEF80060AD02754601D51643C0
:100E200000E096432E60641C0A681646E2407FF498
:100E300029AFBDE8F88F0000000401400000111048
:100E4000001002400000014000080140000C014079
:100E5000001001400014014000180140001C014036
:100E60008068084000D001207047C26821EA020370
:100E70000A4043EA0241016170470AB101617047CB
:100E80000904FBE701488068704700002800002043
:100E90000248816802781144816070472800002070
:100EA000074810B5016841F010010160032000F00F
:100EB00075F80F2000F006F800F024F8002010BDAF
:100EC0000020024070B50D4D04464FF47A71287829
:100ED000B1FBF0F00A490968B1FBF0F000F0ECFA60
:100EE00048B9102C07D200222146501E00F036F8D7
:100EF00000206C6070BD012070BD00002800002043
:100F0000340000200C4808B5816941F0010181617D
:100F1000816901F001010091C16941F08051C16115
:100F2000C06900F0805000900448416821F0E06101
:100F300041F00071416008BD001002400000014016
:100F4000002809DB00F01F020121914040098000C8
:100F500000F1E020C0F8001170470000F0B40E4B23
:100F60001B680C46C3F30223C3F10705042D00D907
:100F70000425191D072901D2002300E0DB1E0126EC
:100F800006FA05F1491E214099409E40761E164002
:100F90003143F0BC02F054B80CED00E0064900F01B
:100FA000070208684FF6FF03184040EA0220034A90
:100FB00010430860704700000CED00E00000FA05E7
:100FC0002DE9F0470F46050061D0434E306800F030
:100FD0000700B84209D2306820F00700384330607B
:100FE000306800F00700B84251D128683B4C8107B7
:100FF00012D5400703D5606840F4E060606028784F
:10100000000703D5606840F4605060606068A968BC
:1010100020F0F000084360602878C00728D0686896
:10102000012810D02168022810D0890700292EDA63
:10103000616821F0030101436160FFF723FF8046EF
:1010400041F288390DE021688903EFE78901EDE776
:10105000FFF718FFA0EB0801494502D90320BDE8BE
:10106000F0876068696800F00C00B0EB810FEFD189
:10107000306800F00700B8420BD9306820F0070054
:1010800038433060306800F00700B84201D00120DA
:10109000E5E72878400705D56068E96820F4E06056
:1010A000084360602878000706D56068296920F445
:1010B000605040EAC100606000F038F86168084A9A
:1010C000C1F30311515CC840064908600648006836
:1010D000FFF7F8FE0020C2E70020024000100240A7
:1010E000F85D0008340000202C0000200448054969
:1010F00000684968044AC1F30221515CC840704746
:101100003400002000100240085E00080448054931
:1011100000684968044AC1F3C221515CC840704765
:101120003400002000100240085E000812A185B0C3
:101130000FC98DE80F0014A0144A0068049051688C
:10114000134801F00C03042B10D0082B0ED1C1F36F
:101150008343C9031DF803000AD5516804AAC1F3EB
:101160004041515C0A4A5043B0FBF1F005B0704772
:1011700008494843FAE70000020304050607080986
:101180000A0B0C0D0E0F101001020000001002409F
:1011900000127A0000093D002DE9F84F040070D0DC
:1011A0002078C04DC00749D06868C0F3810001288D
:1011B00007D06868C0F38100022809D16868C003BD
:1011C00006D52868800339D560680028E7D035E067
:1011D0006068B0F5803F0BD010B1B0F5A02F11D0F2
:1011E000286820F480302860286820F4802002E0FD
:1011F000286840F480302860606890B1FFF742FEB4
:1012000006460AE0286840F480202860F0E700BF26
:10121000FFF738FE801B642873D828688003F7D551
:101220000CE0FFF72FFE064605E000BFFFF72AFEA1
:10123000801B6428F0D828688003F7D420789A4E61
:1012400080074FF001094FF0000839D5686810F0A9
:101250000C0F07D06868C0F38100022809D16868C4
:10126000C00306D42868800714D52069012808D156
:1012700010E02069B0B1C6F80090FFF703FE074602
:1012800005E00AE1FFF7FEFDC01B0228C4D828686C
:101290008007F7D52868616920F0F80040EAC100AE
:1012A00028600DE0C6F80080FFF7ECFD074604E07B
:1012B000FFF7E8FDC01B022823D828688007F7D471
:1012C000207800072CD57948A169D9B1C0F80090E1
:1012D000FFF7D8FD074604E0FFF7D4FDC01B022846
:1012E0000FD8686A8007F7D571484FF4FA51006843
:1012F000B0FBF1F0009000BF0098411E0091FAD2BF
:101300000EE080E0C0F80080FFF7BCFD074604E077
:10131000FFF7B8FDC01B022875D8686A8007F7D4AC
:101320002078400760D5E8690027C00008D4E86944
:1013300040F08050E861E869012700F0805000909B
:101340005C480168C90513D40168834641F4807183
:101350000160FFF797FD824606E000BFFFF792FDB0
:10136000A0EB0A0064284ED8DBF80000C005F5D5D4
:10137000E06801280AD008B1052813D0286A20F0B7
:1013800001002862286A20F0040002E0286A40F088
:1013900001002862E06841F2883B98B1FFF772FDD6
:1013A00082460BE0286A40F004002862EEE700BFA6
:1013B000FFF768FDA0EB0A0159455AD8286A800753
:1013C000F6D50CE0FFF75EFD824605E0FFF75AFD1B
:1013D000A0EB0A0159454CD8286A8007F6D41FB102
:1013E000E86920F08050E861E06988B36968C1F37A
:1013F0008101022944D00228C6F8608004D0FFF79A
:1014000041FD044638E034E0FFF73CFD074604E0C8
:10141000FFF738FDC01B02282BD828688001F7D4BD
:10142000206AB0F5803F05D16868A16820F40030DB
:1014300008436860D4E908010843696821F474111D
:1014400008436860C6F86090FFF71CFD044606E09C
:1014500025E000BFFFF716FD001B022809D8286809
:101460008001F7D51BE000BFFFF70CFD001B022831
:1014700002D90320BDE8F88F28688001F4D40EE07B
:101480000128F7D06868226A00F48031914204D1C3
:10149000616A00F47010884201D00120EAE7002060
:1014A000E8E700000010024000004242800442428F
:1014B000340000200070004010B5401EB0F1807F65
:1014C00001D3012010BD4FF0E02460610F216017AF
:1014D00001F0B6FD0020A06107202061002010BDB2
:1014E0007047704770B590F83C20012A2CD0012439
:1014F00080F83C40022280F83D2003685A689D68CD
:1015000022F070060A6832435A60104B02689A4211
:101510000ED00F4B9A420BD0B2F1804F08D00D4B3A
:101520009A4205D00C4B9A4202D00C4B9A4204D1FD
:10153000496825F080031943916080F83D400021FF
:1015400080F83C10084670BD022070BD002C0140A0
:10155000003401400004004000080040000C00403E
:1015600010B5040003D094F83D0010B107E001204D
:1015700010BD002084F83C00204600F01FF8022037
:1015800084F83D00211D206801F040FB012084F813
:10159000460084F83E0084F83F0084F8400084F858
:1015A000410084F8420084F8430084F8440084F841
:1015B000450084F83D00002010BD000008B5154A24
:1015C0000168154891420ED1C16941F00201C16123
:1015D000C069002200F00200009011461D20FFF7B4
:1015E000BDFC1D2010E00D4A914211D1C16941F0AE
:1015F0002001C161C069002200F020000090114666
:101600003720FFF7ABFC3720BDE80840FFF798BC58
:1016100008BD00000004004000100240001400401B
:1016200090F83D10012901D001207047022180F877
:101630003D100168CA6842F00102CA6000680E49A4
:1016400088420ED00D4988420BD0B0F1804F08D0AF
:101650000B49884205D00B49884202D00A4988428A
:1016600004D1816801F00701062903D0016841F027
:101670000101016000207047002C0140003401404E
:101680000004004000080040000C004070B5044613
:1016900090F83C00012817D0012584F83C50022026
:1016A00084F83D002068826822F0770222F47F42AD
:1016B00082600868502830D00DDC20284DD005DC31
:1016C00098B310283BD148E0022070BD302844D0A8
:1016D000402834D139E0602828D0702806D0B0F5F1
:1016E000805F2CD0B0F5005F29D10AE0CB68D1E94A
:1016F0000121206801F0DDFA2068816841F077015E
:1017000009E0CB68D1E90121206801F0D2FA206814
:10171000816841F48041816011E0CA6849682068AD
:1017200001F09CFB5021206807E016E0CA68496878
:10173000206801F0A4FB6021206801F0C4FA84F85D
:101740003D50002084F83C0070BDCA68496820689C
:1017500001F084FB40212068EFE722680146104633
:10176000EBE7704770B50446006801694FF000056B
:10177000C943890715D4C168C943890711D4E91E33
:10178000016101202077206880698007204602D00F
:10179000FFF7E7FF04E000F0C9F8204600F058F931
:1017A000257720680169C943490717D4C168C9432F
:1017B000490713D46FF004010161022020772068EB
:1017C000806910F4407F204602D0FFF7CAFF04E092
:1017D00000F0ACF8204600F03BF92577206801695D
:1017E000C943090716D4C168C943090712D46FF069
:1017F00008010161042020772068C0698007204625
:1018000002D0FFF7AEFF04E000F090F8204600F0B1
:101810001FF9257720680169C943C90617D4C16833
:10182000C943C90613D46FF0100101610820207765
:101830002068C06910F4407F204602D0FFF791FF76
:1018400004E000F073F8204600F002F925772068E4
:101850000169C943C90708D1C168C943C90704D18F
:10186000891E0161204600F04FF920680169C943D3
:10187000090609D4C168C943090605D46FF080017F
:1018800001612046FFF72CFE20680169C943490623
:1018900009D4C168C943490605D46FF0400101610C
:1018A000204600F071F920680169C94389060BD40C
:1018B000C168C943890607D46FF020010161204641
:1018C000BDE87040FFF70DBE70BD000000B585B0EB
:1018D0000021009101910291039100680F49884213
:1018E0001AD10F48816941F0080181618069694618
:1018F00000F0080004903020009002200190039036
:101900000848FFF7B1F90848416821F4406141F007
:10191000E06141F40061416005B000BD0004004099
:1019200000100240000C014000000140704770B5FB
:10193000044690F83C000D4601280AD0012084F8A6
:101940003C0042B1042A18D0082A2AD00C2A4DD1D2
:1019500039E0022070BD206801F0BEF9206881697D
:1019600041F0080181612068816921F004018161F1
:10197000206881692A69114311E0206801F0DCF9CF
:101980002068816941F4006181612068816921F4E6
:1019900080618161206881692A6941EA022181614F
:1019A00024E0206801F0FEF92068C16941F00801D7
:1019B000C1612068C16921F00401C1612068C16969
:1019C0002A69114311E0206801F020FA2068C169FA
:1019D00041F40061C1612068C16921F48061C16185
:1019E0002068C1692A6941EA0221C161002084F8A6
:1019F0003C0070BD10B5040003D094F83D0010B158
:101A000007E0012010BD002084F83C00204600F0D3
:101A10001EF8022084F83D00211D206801F0F6F830
:101A2000012084F8460084F83E0084F83F0084F8E2
:101A3000400084F8410084F8420084F8430084F8B0
:101A4000440084F8450084F83D00002010BD704734
:101A50007047000010B50446022249B104290ED097
:101A6000082913D094F84100012816D0012010BD98
:101A700094F83E000128F9D184F83E200FE094F854
:101A80003F000128F2D184F83F2008E094F840009C
:101A90000128EBD184F8402001E084F841200122A4
:101AA000206801F0F9F813492068134A884201D0F0
:101AB000904203D1436C43F400434364206888425E
:101AC0000DD090420BD0B0F1804F08D00B49884226
:101AD00005D00B49884202D00A49884204D1816866
:101AE00001F00701062903D0016841F001010160FE
:101AF000002010BD002C01400034014000040040D3
:101B000000080040000C004070B500681A49884287
:101B100030D11A4C00256078401CC0B26070A178AA
:101B2000491CA170E178491CC9B2E170642903D154
:101B3000E5702179491C21712179322900D1257163
:101B40000A280DD10E486570B0F90000FEF7CAFDF5
:101B500001460C480068FEF7D9FFFEF7C3FD20617F
:101B6000A0780A2806D1A570E08860812089A0812C
:101B7000E580258170BD00000014004000000020B9
:101B80001600002020000020704770B5040004D02B
:101B900094F83D00002510B106E0012070BD84F8E6
:101BA0003C50204600F022F8242084F83D002068B4
:101BB000C16821F40051C160204601F073F920682A
:101BC000016921F4904101612068416921F02A01F5
:101BD00041612068C16841F40051C1602564202042
:101BE00084F83D0084F83E00002070BD30B585B01B
:101BF00000240094019402940394006814498842DC
:101C000024D11448816941F480418161816901F4E2
:101C100080410491816941F00401816180690E4D28
:101C200000F0040004904FF4007000900220019036
:101C30000320039069462846FFF716F82815CDE9DA
:101C40000004694628460294FFF70EF805B030BD3F
:101C500000380140001002400008014090F83E307A
:101C6000202B0ED159B152B190F83C30012B08D045
:101C7000012380F83C300023036301F06FB9012099
:101C800070470220704700002DE9F843044690F8A1
:101C90003D001F4616460D4620284CD1C5B1BEB1A9
:101CA00094F83C00012846D0012084F83C004FF015
:101CB0000008C4F84080212084F83D00FFF7E2F8D6
:101CC000A6848146E684A068B0F5805F03D004E076
:101CD0000120BDE8F883206928B12E465FF0000599
:101CE00084F83C800EE00026FAE78021204601F0CF
:101CF00050F9A0B9AEB116F8010B21684860E08C2C
:101D0000401EE084E08C4B464FF000020097002814
:101D1000EBD14FF04001204601F03BF930B10320F8
:101D2000D7E735F8020BC0F30800E6E7202084F877
:101D30003D000020CDE70220CBE7FEE72DE9F04192
:101D4000104D4FF48054002221462846FFF795F8A5
:101D500000F01CF801220C4F560331463846FFF7BD
:101D60008CF800F013F8002231463846FFF785F86A
:101D700000F00CF821462846BDE8F0410122FFF7AB
:101D80007CB80000000C0140001001400020401C05
:101D9000C0B20A28FBD370470E4800B5816985B0F0
:101DA00041F0080181618069694600F008000490F3
:101DB0004FF44050009003200390112001900648FA
:101DC000FEF752FF69460548FEF74EFF00F0BAF8ED
:101DD00005B000BD00100240000C014000100140A1
:101DE00070B5012211030B48FFF747F8FFF7CEFF4C
:101DF0000122094D540321462846FFF73EF8FFF71C
:101E0000C5FF002221462846FFF737F8BDE870409D
:101E1000FFF7BCBF000C0140001001402DE9F04766
:101E20000024DFF85CA0174F804625464FF4805908
:101E30004FF400566006040E012231463846FFF783
:101E40001CF8FFF7A3FF49465046FFF709F808B111
:101E5000641CE4B2002231463846FFF70EF8FFF763
:101E600095FF6D1CEDB2082DE4D3B8F1000F04D03E
:101E7000FFF764FF2046BDE8F087FFF7B1FFF9E701
:101E8000000C0140001001402DE9F047184FDFF829
:101E90006490054600244FF400564FF480582806FD
:101EA00001D5012200E0002241464846FEF7E5FF49
:101EB000FFF76CFF012231463846FEF7DEFFFFF7E1
:101EC00065FF002231463846FEF7D7FF072C04D1C4
:101ED000012241464846FEF7D0FF6806050EFFF78F
:101EE00055FF641CE4B2082CD9D3BDE8F08700008C
:101EF00000100140000C01402DE9F04101220F4D7E
:101F0000140321462846FEF7B8FF01220C4F560362
:101F100031463846FEF7B1FFFFF738FF0022214671
:101F20002846FEF7AAFFFFF731FF00223146384668
:101F3000FEF7A3FFBDE8F041FFF728BF000C01400A
:101F40000010014070B50B4D4FF480540022214623
:101F50002846FEF792FF012251030748FEF78DFF46
:101F6000FFF714FF21462846BDE870400122FEF726
:101F700084BF0000000C0140001001402DE9F04139
:101F80000122114F140321463846FEF776FFFFF772
:101F9000FDFE01220D4E550329463046FEF76DFF2A
:101FA000FFF7F4FE21463846FEF75AFF08B1012438
:101FB00000E00024002229463046FEF75EFFFFF7CE
:101FC000E5FE2046BDE8F081000C01400010014014
:101FD00010B500224FF400410448FEF74EFF0122E5
:101FE000BDE8104051020248FEF747BF000801401B
:101FF000001001407CB514460D4606466B4606228D
:102000004321682000F06AF800280DD1BDF80010C7
:1020100049BAA1F21D113180BDF8021049BA2980D8
:10202000BDF8041049BA21807CBD10B5FFF7B4FE9D
:1020300080216B2000F0C1F86420FEF7DDFD002157
:102040006B2000F0BAF8032000F083F8002000F0C5
:102050007BF8322000F09AF80021382000F0ADF82B
:1020600000216A2000F0A9F80021232000F0A5F843
:102070008021372000F0A1F8752000F011F86828C1
:1020800001D0012010BD01216B2000F096F8002145
:102090006C2000F092F8322000F078F8002010BD9B
:1020A00010B50446FFF728FFD020FFF7EDFEFFF73D
:1020B00065FF2046FFF7E8FEFFF760FFFFF71CFF14
:1020C000D120FFF7E1FEFFF759FF0020FFF7A6FE42
:1020D0000446FFF737FF204610BD00002DE9F04110
:1020E0001D4614460F460646FFF706FF7006000E13
:1020F000FFF7CAFEFFF742FF20B1FFF723FF0120E1
:10210000BDE8F0813846FFF7BFFEFFF737FFFFF766
:10211000F3FE012000EB4600C0B2FFF7B5FEFFF76B
:102120002DFF09E0012C0DD05FF00100FFF776FED6
:10213000641E05F8010BE4B2002CF3D1FFF702FF97
:102140000020DDE70020F1E7C006010E1C2000F0B2
:1021500034B8C006010E1B2000F02FB8BC2801D3F4
:10216000012110E0622801D302210CE02A2801D3CA
:10217000032108E0142801D3042104E00A2801D334
:10218000052100E006211A2000F017B810B504461A
:102190004FF47A70844201D9044602E0042C00D244
:1021A0000424B0FBF4F0401EC1B2192000F005F881
:1021B0006008BDE81040FFF7D1BF70B50C4605467A
:1021C000FFF79AFED020FFF75FFEFFF7D7FE50B96A
:1021D0002846FFF759FEFFF7D1FE2046FFF754FED1
:1021E000FFF7CCFE18B1FFF7ADFE012070BDFFF781
:1021F000A9FE002070BD2DE9F0411E4615460F4690
:102200000446FFF779FE6006000EFFF73DFEFFF77C
:10221000B5FE60B93846FFF737FEFFF7AFFE002482
:102220000CE0305DFFF730FEFFF7A8FE20B1FFF7AE
:1022300089FE0120BDE8F081641CE4B2AC42F0D319
:10224000FFF780FE0020F5E72DE9F04F85B0002470
:102250004A480094019402940394816941F010016A
:102260008161816901F010010491816941F02001CF
:102270008161816901F020010491816941F00401CB
:102280008161816901F004010491816941F00801D3
:1022900081618069DFF8E89000F0080042F22225B1
:1022A0000490002229464846FEF7E7FD4FF4985770
:1022B000002239463348FEF7E0FDDFF8CCA04FF4AA
:1022C0000148002241465046FEF7D7FDDFF8BCB07A
:1022D000002204215846FEF7D0FD00950226012574
:1022E0000396CDE9015469464846FEF7BDFCCDE9A9
:1022F0000054694650460294FEF7B6FC1020009048
:102300002348CDE9010469464846FEF7ADFC009735
:102310000396CDE9015469461A48FEF7A5FCCDF8AD
:1023200000800396CDE9015469465046FEF79CFCB7
:102330000420CDE90005CDE9024669465846FEF77E
:1023400093FCC02000901348CDE9010469460D4874
:10235000FEF78AFC002211460A20FEF7FFFD0A2044
:10236000FEF7EEFD002211461720FEF7F7FD1720BD
:10237000FEF7E6FD05B0BDE8F08F0000001002405A
:1023800000100140000C0140000801400014014011
:10239000000021100000111010B58EB00024079429
:1023A000089409940A940B941C2168460C94FDF738
:1023B00025FF2248204901600921C0E9011441F6A6
:1023C0001F41C0E903148461FFF7CAF808B1FEF7A2
:1023D00011FC4FF48050079007A91848FFF756F9F1
:1023E00008B1FEF707FC1548FFF704FB08B1FEF73C
:1023F00001FC0B940BA911480C94FFF773F808B17A
:10240000FEF7F8FB6020CDE9000402940022694643
:102410000A480494FFF78BFA08B1FEF7EBFB04229D
:1024200069460648FFF783FA08B1FEF7E3FB034865
:10243000FFF74CFA0EB010BD0004004080000020F1
:102440001CB500240E4800940C49019401604721FA
:10245000C0E9011440F2E7318461C160FFF780F800
:1024600008B1FEF7C7FB0094694605480194FFF7E1
:1024700039F8002801D0FEF7BDFB1CBD0014004058
:10248000C80000200C4810B50A4901604FF4E13142
:102490004160002181600C22C160C0E904128161A9
:1024A000C161FFF772FB002803D0BDE81040FEF7C2
:1024B000A1BB10BD003801401001002010B5002163
:1024C000082312A2084600F07DF9082311A2012179
:1024D000002000F077F9082310A20221002000F06C
:1024E00071F908230FA20321002000F06BF90823E3
:1024F0000EA20521002000F065F908230621BDE8A1
:1025000010400BA2002000F05DB90000726F6C6CEF
:102510003A000000677972783A0000006B70323A36
:10252000000000006B64323A000000006B703A005B
:102530006B693A00FEE710B500F006F8FFF748FDBA
:10254000BDE8104000F010BB012202210148FEF757
:1025500094BC000000100140002202210148FEF757
:102560008CBC000000100140FEE770B5002404F1AF
:10257000B000C0B2002100F0C7F90021022000F035
:10258000C3F90021102000F0BFF90025012100202F
:1025900000F0BAF96D1CEDB2802DF7D3641CE4B2E3
:1025A000082CE4D370BD10B5044603F019FB782065
:1025B00003F0DAFA03F066FB002003F0D5FA03F02B
:1025C00061FB204603F0D0FA03F05CFBBDE810404D
:1025D00003F032BB10B5044603F002FB782003F091
:1025E000C3FA03F04FFB402003F0BEFA03F04AFBAE
:1025F000204603F0B9FA03F045FBBDE8104003F0B4
:102600001BBB10B56420FEF7F7FA0021AE2000F0E6
:102610007BF90021084600F077F90021102000F036
:1026200073F90021402000F06FF90021B02000F084
:102630006BF90021812000F067F90021FF2000F0F4
:1026400063F90021A12000F05FF90021A62000F02D
:102650005BF90021A82000F057F900213F2000F08D
:1026600053F90021C82000F04FF90021D32000F0D9
:102670004BF90021084600F047F90021D52000F071
:1026800043F90021802000F03FF90021D82000F01C
:102690003BF90021052000F037F90021D92000F096
:1026A00033F90021F12000F02FF90021DA2000F0A9
:1026B0002BF90021122000F027F90021DB2000F087
:1026C00023F90021302000F01FF900218D2000F0B7
:1026D0001BF90021142000F017F90021AF2000F0B1
:1026E00013F90021AF2000F00FF9FFF73EFF0021A2
:1026F000BDE810400846AFF3008010B50446B03185
:10270000C8B2002100F000F9102040EA14100021A6
:1027100000F0FAF804F00F00BDE8104040F00100AE
:10272000002100F0F1B800002DE9F041203A00242A
:102730000D460746D6B2102B17D07F2F02D900279F
:102740004D1CEDB229463846FFF7D7FF1B4906EB73
:10275000460001EB40050121285D00F0D5F8641C1E
:10276000E4B2062CF7D3BDE8F0817F2F02D9002711
:102770008D1CEDB229463846FFF7BFFFDFF84080D9
:1027800004EB061118F80100012100F0BDF8641CEB
:10279000E4B2082CF4D36D1CE9B23846FFF7ADFF64
:1027A0000024454604EB061028440121007A00F07D
:1027B000ABF8641CE4B2082CF4D3D4E7566A0008E2
:1027C0007E6C00082DE9F0410025984617460E461C
:1027D0000446102B0ED020E0434631462046FFF73A
:1027E000A3FF0834E4B2782C02D90024B61CF6B258
:1027F0006D1CEDB27A5D002AEED1BDE8F081434652
:1028000031462046FFF790FFA41DE4B2782C02D990
:102810000024761CF6B26D1CEDB27A5D002AEED172
:10282000EBE72DE9FF5F05461E46DDF8388002988C
:10283000FDF777FF81460F9800244FF00A0A4708FA
:1028400025E0301B401EC1B20A2003F03BFAB9FB61
:10285000F0F1B1FBFAF20AFB1210BBF1000F05D147
:10286000711E8C4202DA40B14FF0010B3030C2B21F
:1028700007FB0450C0B20F9B04E007FB04500F9B02
:10288000C0B220220199FFF74FFF641CE4B2B442AA
:10289000D7D307FB0650C0B22E220F9B0199FFF73A
:1028A00043FF41460A2003F00DFAFDF724FF0446DA
:1028B0004846FDF717FF0299FDF70DFD2146FDF78C
:1028C0000DFDFDF72EFF002481466D1D18E0A8EBDD
:1028D0000400401EC1B20A2003F0F4F9B9FBF0F184
:1028E000B1FBFAF20AFB1211A01907FB00503031BC
:1028F000CAB2C0B20F9B0199FFF716FF641CE4B285
:102900004445E4D3BDE8FF9F09B1FFF763BEFFF77D
:102910004ABE10B5044603F063F96E2003F024F9B3
:1029200003F08CF8012003F01FF903F087F803F09F
:1029300083F903F055F96C2003F016F903F07EF8E3
:10294000012003F011F903F079F803F075F903F0B1
:1029500047F96A2003F008F903F070F8012003F04A
:1029600003F903F06BF803F067F903F039F9682015
:1029700003F0FAF803F062F8012003F0F5F803F031
:102980005DF803F059F92046FEF736F903F028F90F
:102990006E2003F0E9F803F051F8002003F0E4F8AA
:1029A00003F04CF803F048F903F01AF96C2003F037
:1029B000DBF803F043F8002003F0D6F803F03EF80C
:1029C00003F03AF903F00CF96A2003F0CDF803F0B4
:1029D00035F8002003F0C8F803F030F803F02CF9C4
:1029E00003F0FEF8682003F0BFF803F027F800209A
:1029F00003F0BAF803F022F803F01EF9BDE8104026
:102A00000120FEF7A8B810B5FFF7FBFDFFF7ADFDFD
:102A10004FF4FA70FFF77DFFBDE810400120FEF78C
:102A20009AB800007CB53248324C006810F1FF4F74
:102A300003D2082330A2606004E020F000400823A5
:102A40002EA2606000211E20FFF7BCFE2C48B0F9CA
:102A50000000002803DB2080082327A208E0FDF700
:102A60004FFE21F00041FDF789FE2080082323A2BC
:102A700001211E20FFF7A6FE0F260225CDE90056F4
:102A80000323002128206268FFF7CBFEB4F9000081
:102A9000FDF728FECDE90056024603230121282038
:102AA000FFF7BFFE0C24174ECDE90054032302218B
:102AB00019203268FFF7B5FECDE90054032319460B
:102AC0001920B268FFF7ADFE03250F4ECDE9005483
:102AD0000223052119203268FFF7A3FECDE9005437
:102AE0000223062119207268FFF79BFE7CBD0000BF
:102AF00020000020700000202B0000002D000000AE
:102B0000160000209C0100206401002010494FF0B5
:102B10007E50104A0860002048608860C8600861E4
:102B2000C1E905021C310C4B0B600C4BC1E90130B3
:102B3000C8600861C1E905021C31094B0B604FF008
:102B40007C53C1E902300861C1E905027047000009
:102B50006401002000007A44CDCC4C3E0000C0400F
:102B6000000048427047000010B500224FF4807109
:102B70000448FEF782F90122BDE8104020210248F6
:102B8000FEF77BB900080140001001407047FEF7D6
:102B90007FB930B58FB028216846FDF72FFB14218F
:102BA0000AA8FDF72BFB01210804CDE90010002441
:102BB000029402250491CDE907504FF4E0100990EA
:102BC0006846FEF7E9FA08B172B6FEE70F20CDE9D4
:102BD0000A054FF48060CDE90C4002210AA80E944A
:102BE000FEF7EEF9002801D072B6FEE70FB030BD57
:102BF000704700000148FEF7B5BD000080000020CE
:102C00000148FEF7AFBD0000C8000020F0B5026823
:102C10001C4B1D4D1D4E1E4F1E4C4FF0804C9842BC
:102C200009D0A04207D0604505D0A84203D0B042E9
:102C300001D0B84204D122F0700E4A6842EA0E0276
:102C4000984209D0A04207D0604505D0A84203D0E1
:102C5000B04201D0B84203D122F44075CA682A4379
:102C60004D6922F080022A4302608A68C2620A68C3
:102C70008262984201D0A04201D109690163012119
:102C80004161F0BD002C01400004004000080040FC
:102C9000000C00400034014010B501F01F03012179
:102CA000046A99408C430462016A9A4011430162AC
:102CB00010BD10B5846842EA032224F47F440A431D
:102CC0002243826010BD826822F070020A4342F003
:102CD0000701816070470000F0B5026A22F001022E
:102CE0000262036A42688469124E24F073050C681C
:102CF0002C4323F002058B682B430D4DA84201D0D5
:102D0000B04205D123F00807CB683B4323F004030E
:102D1000A84201D0B04205D14D6922F4407215435A
:102D20008A692A4342608461496841630362F0BD55
:102D3000002C014000340140F0B5026A22F010027C
:102D40000262026A436884690D6824F4E64444EA36
:102D500005248D6822F0200242EA05120F4D104E24
:102D6000A84201D0B04206D1CF6822F0800242EAE8
:102D7000071222F04002A84201D0B04207D14D69AB
:102D800023F4406343EA85038D6943EA8503436086
:102D90008461496881630262F0BD0000002C01403B
:102DA00000340140F0B5026A22F480720262026AC5
:102DB0004368C46922F4007224F073050C68124E53
:102DC0002C438D6842EA05220E4DA84201D0B04244
:102DD00006D1CF6822F4006242EA072222F4806220
:102DE000A84201D0B04207D14D6923F4405343EAD1
:102DF00005138D6943EA05134360C4614968C163E3
:102E00000262F0BD002C01400034014030B5026A7E
:102E100022F480520262046A4268C3690D6823F496
:102E2000E64343EA05238D6824F4005444EA05345C
:102E3000084DA84202D0084DA84204D14D6922F4A1
:102E4000804242EA85124260C361496801640462BB
:102E500030BD0000002C01400034014010B5036A71
:102E6000046A24F001040462846924F0F00444EA52
:102E7000021423F00A020A438461026210BD10B5F5
:102E8000036A23F0100303628369046A23F4704326
:102E900043EA023224F0A00343EA01118261016295
:102EA00010BD000070B5044600680169E26821F4B5
:102EB0004051114301612169A068084361690843D9
:102EC0002168CA6841F20C639A430243CA602068D1
:102ED0004169A26921F44071114341611E49206892
:102EE000884202D1FEF712F901E0FEF7FFF800EB8D
:102EF000C00101EB0012606864218000B2FBF0F3B6
:102F0000B3FBF1F36FF018067343B2FBF0F5B2FBBD
:102F1000F0F605EB8305322303EB0515B5FBF1F560
:102F2000B6FBF1F605F0F00505EB0615B2FBF0F681
:102F3000B2FBF0F0B0FBF1F06FF01802504306EB7B
:102F4000800003EB0010B0FBF1F0216800F00F00EF
:102F50002844886070BD000000380140816282858D
:102F6000C28500210164222280F83E2080F83C10B6
:102F70000168CA6842F48072CA6001684A6942F016
:102F800001024A610068C16841F02001C16000206F
:102F900070472DE9F041984617460E460446069DB7
:102FA0001DE0681C1BD02DB1FDF76CFFA0EB0800E5
:102FB000A84214D92068C16821F4D071C16020688A
:102FC000416921F001014161202084F83D0084F82D
:102FD0003E00002084F83C000320BDE8F08120681A
:102FE000006836EA000004D00020B842D9D00020A2
:102FF000F3E70120F9E7FEE70FB4054B10B503A98D
:10300000044A029800F0AAF810BC5DF814FB000016
:103010000546000878000020490050EAC12018BF8A
:1030200004204A0D18BF40F0010040F2FF72B2EBDD
:10303000515F08BF40F00200012808BF052070471B
:103040000907090E002804DB00F1E02080F80014D5
:10305000704700F00F0000F1E02080F8141D704769
:103060002DE9F0414F1E00EBC7010446D1E90001F4
:1030700015461E4637F006020DD02A463346FDF7A8
:1030800050FA7F1E04EBC703D3E90023FDF7A2F932
:1030900037F00602F1D1022F25D0042F13D0062FCE
:1030A00018BFBDE8F0812A463346FDF73AFAD4E965
:1030B0000A23FDF78FF92A463346FDF732FAD4E9A1
:1030C0000823FDF787F92A463346FDF72AFAD4E9A3
:1030D0000623FDF77FF92A463346FDF722FAD4E9A5
:1030E0000423FDF777F92A463346FDF71AFAD4E9A7
:1030F0000223FDF76FF92A463346FDF712FAD4E9A9
:103100000023BDE8F041FDF765B90122FDF76ABC77
:10311000FDF760B90022134610461146FDF773BA59
:10312000024A00201107FDF75DBC000001FDFFFF12
:1031300002E008C8121F08C1002AFAD17047704780
:10314000002001E001C1121F002AFBD170470000DE
:1031500001490860704700007C0000202DE9FF4F06
:103160008DB00F460546002606E025280BD0DDE988
:103170000F1290476D1C761C28780028F5D111B0ED
:103180003046BDE8F08F0024A246A1460122E9495D
:1031900000E0044315F8013F203B02FA03F0084227
:1031A000F7D128782A2810D06FF02F022878A0F1C4
:1031B0003001092914D80AEB8A0102EB410144F0DD
:1031C000020400EB010A6D1CF0E701CF5FEA000A80
:1031D00003D544F40054CAF1000A44F002046D1C03
:1031E00028782E2817D115F8010F44F004042A2856
:1031F0000ED06FF02F022878A0F1300109290AD8EB
:1032000009EB890102EB410100EB01096D1CF2E7BA
:1032100057F8049B6D1C28786C280FD006DC4C28CE
:1032200017D068280DD06A2814D104E0742810D073
:103230007A280FD10DE044F400140AE044F480141D
:1032400001E044F440146978814202D104F580140D
:103250006D1C6D1C28786E281ED00CDC632830D0C5
:1032600004DC00288BD0582811D19FE0642867D057
:1032700069280CD164E073282DD004DC6F2872D04B
:10328000702804D194E075286ED078286DD0DDE9DF
:103290000F129047761C4BE1C4F30250022806D06F
:1032A000032809D0042801CF09D0066040E101CFEE
:1032B000F117C0E900613BE101CF068038E10670FB
:1032C00036E117F8040B8DF8000000208DF801009E
:1032D000EB46012003E057F804BB4FF0FF306107D5
:1032E0004FF0000102D40DE008F101018846494584
:1032F0000FDA8045F8DB1BF808100029F4D108E04C
:1033000008F1010188468142FADB1BF80810002908
:10331000F6D1DDE90F23AAEB08008146214600F033
:1033200031F9304400EB080604E0DDE90F121BF828
:10333000010B9047B8F10108F7D221464846F2E068
:103340000A21C4F302524FF0000B0891022A04D064
:1033500001CFC117032A09D00AE0FF1D27F0070794
:10336000F7E8020108E02CE01EE01FE000B2C11700
:10337000042A01D140B2C117021E71F1000206DA1F
:103380000023D0EB030063EB01012D2202E02205B4
:1033900004D52B228DF82420012203E0E20701D07E
:1033A0002022F7E7904653E00A210BE0102109E0C4
:1033B00010214FF0000B44F004044FF0080908916D
:1033C00003E008214FF0000B0891C4F30252022AD7
:1033D00004D001CF0021032A06D006E0FF1D27F00C
:1033E0000707F7E8020103E080B2042A00D1C0B267
:1033F0004FF0000822072BD52A78702A07D0DDF875
:1034000020C08CF0100C5CEA0B0C05D00EE04022C2
:103410008DF82420012208E050EA010306D0302371
:103420008DF824308DF8252002229046089B83F0E9
:10343000080353EA0B030BD150EA010201D16207E2
:1034400006D530228DF824204FF00108A9F101099A
:103450002A78582A04D038A20B9208AA0A920BE0C4
:103460003AA2F9E75B46089AFDF7D6F90B9B9B5CFD
:103470000A9A521E0A92137050EA0102F2D10A9877
:10348000ADEB000000F1200B600702D524F480347E
:1034900001E04FF00109D94502DDA9EB0B0000E086
:1034A000002000EB0B0141440890AAEB010AE00365
:1034B00006D4DDE90F232146504600F063F80644A8
:1034C0004FF0000908E009A911F80900DDE90F1221
:1034D000904709F10109761CC145F4DBE0030CD5E6
:1034E000DDE90F232146504600F04CF8064404E085
:1034F000DDE90F1230209047761C0899481E08908D
:103500000029F5DC08E00A980A990078491C0A911C
:10351000DDE90F129047761CBBF10001ABF1010B06
:10352000F1DC21465046DDE90F2300F019F806448E
:103530006D1C21E60928010030313233343536372D
:1035400038396162636465660000000030313233EF
:10355000343536373839414243444546000000008F
:103560002DE9F041044600251E461746880404D480
:1035700005E039462020B0476D1C641EF9D5284669
:10358000BDE8F0812DE9F041044600251E46904635
:10359000C80301D5302700E02027880404D505E0C2
:1035A00041463846B0476D1C641EF9D52846BDE833
:1035B000F08100002DE9FE4F07460E4600256846C3
:1035C00001F02CF800246FF00F0AE8464FF00109D3
:1035D00057F8240056F82410401A00D54042FDF751
:1035E00081F85146FCF7EAFE58F8241011F0FF4F1D
:1035F0000BD0FCF7A5FE4FF07E51FCF769FE0A499F
:1036000020F00040884205DC07E0084908440849EA
:10361000884202D309FA04F00543641C032CD7DB6B
:103620002846BDE8FE8F0000295C0F3E666666C135
:103630009A99D9002DE9F04D8D4F21F0004A86B0BE
:1036400005460C46BA452ADBAAEB070028430AD0F8
:103650008848824501DC1AD1CDB106B02846BDE8C4
:10366000F04DFFF752BD844A844B2846FCF759FFC2
:1036700007460E46824A834B28462146FCF751FFF7
:1036800006B03A463346BDE8F04DFCF7A3BE012034
:10369000FFF75EFD06B0BDE8F04DFFF73BBD7A4891
:1036A000824542DABAF1795F0BDA2846FFF7B4FCBB
:1036B000042808BFFFF734FD284606B02146BDE8C0
:1036C000F08D2A460B461046FCF72BFF8346024638
:1036D0006E480E460B4606217844FFF7C1FC5A4659
:1036E0003346FCF71EFF804669488A465A463346F1
:1036F00004217844FFF7B4FC5A463346FCF711FF27
:1037000000223B46FCF766FE02460B464046514609
:10371000FCF779FF2A462346FCF703FF06B02A464A
:103720002346BDE8F04DFCF755BE284624F0004185
:1037300000223D463B46FCF7F1FE4FF0FF32FDF71D
:1037400051F90646024653480F460B460621784477
:10375000FFF786FC32463B46FCF7E3FECDE900016D
:103760004D4832463B4604217844FFF779FC324607
:103770003B46FCF7D6FE00222B46FCF72BFE834689
:1037800002913046394602F011FB804643480D460F
:10379000504517DCDDE900015A46029BFCF733FF78
:1037A00042462B46FCF7BDFE42462B46FCF712FE76
:1037B0000122FDF717F9304A304BFCF7ACFE304AD6
:1037C000304B4CE04FF0000A52460B464046FCF7A7
:1037D00001FECDE9031052462B4610461946FCF770
:1037E000A0FE32463B46FCF799FEDDE90332FCF7CA
:1037F0000AFF06460F46DDE900015A46029BFCF728
:1038000002FF83460091012230463946FDF7EAF86F
:10381000194A1A4BFCF782FE06460F460122404623
:103820002946FDF7DFF85A46009BFCF77AFE324640
:103830003B46FCF770FE06460F46012250462946DD
:10384000FDF7D0F80E4DDFF858802A464346FCF7C6
:1038500065FE32463B46FCF761FE2A464346FCF7CE
:103860005DFE002CD8BF81F0004106B0BDE8F08DB0
:103870000000F03F0000F07F075C143326A6913C67
:10388000182D4454FB21F93F0000E03F943B000019
:10389000AA3B00001E3B0000343B00003333EF3FE7
:1038A000FB21E93F2DE9F84F04460D4621F0004089
:1038B00000917349814211DC7249884201DC06D1D2
:1038C0002CB120462946BDE8F84FFFF71EBC6E48D4
:1038D000002DCCBF6D496E49BDE8F88F6D4981421E
:1038E00011DD6D498142D8BF4FF0FF366DDD2046B6
:1038F0002946FFF791FB042808BFFFF711FC20467B
:103900002946BDE8F88F6549654F25F0004581429D
:1039100033DD6449814219DD002632464FF0804391
:1039200020462946FCF756FD80468A46012220465D
:103930002946FDF757F800223B46FCF7ECFD4246CE
:103940005346FCF760FE04460D463EE00126002289
:10395000BA463B4620462946FCF73CFD80460F46CA
:103960000022534620462946FCF7D5FD42463B46F9
:10397000FCF749FE04460D4627E04B4981421BDD1A
:10398000DFF828A102260022534620462946FCF7EC
:10399000C8FD00223B46FCF71DFD80460F46002275
:1039A000534620462946FCF7B6FD42463B46FCF707
:1039B0002AFE04460D4608E0032622462B46002038
:1039C0003B49FCF720FE04460D4622462B46104696
:1039D0001946FCF7A6FD8B46824602460B46FCF7CD
:1039E000A0FD07460246334888460B460621784428
:1039F000FFF736FB52465B46FCF793FD82462E48A6
:103A00008B463A46434605217844FFF729FB3A4660
:103A10004346FCF786FD02460B46002E50465946AB
:103A20000CDAFCF7D7FC22462B46FCF77AFD01B0F6
:103A300022462B46BDE8F04FFCF770BDFCF7CAFCF0
:103A400022462B46FCF76DFD1C4A7A4402EBC60366
:103A5000D3E90023FCF75FFD22462B46FCF75BFD14
:103A6000174A7A4402EBC603D3E90023FCF756FD5C
:103A7000009A002AB8BF81F00041BDE8F88F00002D
:103A8000000010440000F07F182D4454FB21F93F42
:103A9000FB21F9BF0000DC3F0000203E0000F33FA7
:103AA0000000F03F0000E63F008003400000F83FC8
:103AB0000000F0BF36390000F438000092380000F2
:103AC0005A3800002DE9F04D9446CCF1000423F063
:103AD00000464CEA0404594F46EAD4749A46884694
:103AE00021F00042BC4206D8454240EA050442EAC1
:103AF000D474BC4204D9BDE8F04D6246FFF708BB60
:103B0000AAF14055A5F17F6555EA0C040BD00224BB
:103B100004EAAA744A4DDFF82CE144EAD87452EA68
:103B2000000B04D00CE0BDE8F04DFFF7BBBE002C4D
:103B300014BF012CBDE8F08D022C30D0032C32D004
:103B400056EA0C0B0AD0BE4220D1BA4209D126F067
:103B5000804622F080423346114617E000291ADBE6
:103B600025E0DFF8E4B0FB44002C04BFDBE90001F2
:103B7000BDE8F08D012C02BFDBE9000181F00041BE
:103B8000BDE8F08D022C0AD0032C0CD0BA4212D121
:103B9000B8F1000F0BDA2A482C49BDE8F08D284611
:103BA0002B49BDE8F08D28467146BDE8F08D2448CC
:103BB0002849BDE8F08D921B12153C2AC4BF204F46
:103BC000244E10DCBAF1000FBEBF12F13C0F0027EB
:103BD0003E4608DB6246FCF716FD21F00041FFF788
:103BE00061FE07460E4694B1012C08BF86F00046E0
:103BF0000DD0194A194B022C3846314615D0FCF726
:103C00008AFC2A46BDE8F04D114BFCF784BC00222B
:103C1000134638463146FCF7FDFE04BF0220FFF78D
:103C200097FA38463146BDE8F08DFCF774FC2A4619
:103C3000BDE8F04D064BFCF771BC00000000F07FC2
:103C4000182D4454FB2109C0EE370000FB21F9BFB9
:103C5000FB210940FB21F93F075C143326A6A13C58
:103C600071B54FF461754FF0E023104E009819E0E4
:103C70002C46A04200D804469869614201EBC1017C
:103C800010EBC10105D49A69824208DA8A42FADA55
:103C900005E08A1999698142FCDD9142FADC0098BD
:103CA000001B00900028E3D178BD000040190100FE
:103CB00008B560B120208DF8000028208DF80100A3
:103CC00030208DF8020038208DF8030004E0A32294
:103CD00004216846FCF78BFA6A46042140F69E20D0
:103CE00001F082FE01F040FB08BD00003EB5044635
:103CF00002208DF80000CA208DF80100E3208DF825
:103D0000020009208DF803006A460421682001F0B2
:103D10006BFEA3208DF80000610609D5C0218DF847
:103D20000110C8218DF80210C2218DF8031005E0A2
:103D30008DF801008DF802008DF8030014F4C07FA7
:103D400009D0C4218DF80410CC218DF80510C621AE
:103D50008DF8061005E08DF804008DF805008DF84B
:103D600006008DF808008DF807008DF809006A46F6
:103D70000A2140F6A72001F037FEA0074FF0D80532
:103D800003D020208DF8000001E08DF800506A4635
:103D9000012140F6B62001F027FEA00601D5012042
:103DA00000E0002000F08EF814F4C07F1ED0E00583
:103DB0000AD5B2208DF800008B208DF80100B620C6
:103DC0008DF802009B2009E0B0208DF800008020D3
:103DD0008DF80100B4208DF8020090208DF80300CA
:103DE0006A46042140F6A22001F0FEFDE1074FF4EF
:103DF0000B6022D0F8218DF800106A46012101F0F5
:103E0000F3FDFA21072000F049FB072000F014FB26
:103E1000012000F031FB642000F0D4FB4FF4FA7075
:103E200000F0E0FBC821254800F0CEFA282000F081
:103E3000E3FA0A2000F0F0FA05E08DF800506A4637
:103E4000012101F0D1FDA00703D5D9208DF8000094
:103E500001E08DF800506A46012140F23D7001F00A
:103E6000C3FD600701D5012000E0002000F048F804
:103E7000E00601D5012000E00020FFF719FF104DFA
:103E800044F00800688101F06FFA0020A873600612
:103E900001D50620A87314F4C07F02D0A87B801D32
:103EA000A87314F0140F02D0A87B1030A873A007D9
:103EB00002D0A87B001DA87300203EBD09E3CA0202
:103EC000540100200EB54FF4976310B106A107C945
:103ED00001E008A207CA8DE807006A4609211846D2
:103EE00001F082FD0EBD0000B8AAB38DB4980D3567
:103EF0005D000000B8AAAAAAB088C3C5C700000028
:103F000008B560B1C0208DF80000C2208DF8010016
:103F1000C4208DF80200C6208DF8030004E08B2237
:103F200004216846FCF763F96A46042140F69820AC
:103F300001F05AFD01F018FA08BD0000C8234FF443
:103F40008062024940F6F63001F0F0B8605E000889
:103F50002DE9FF4F89B01746DDE916520024544E73
:103F6000884681462C80A246B07B694601F08AF9DA
:103F70004FF0FF3B18B158460DB0BDE8F08F708987
:103F800010F0140F4CD0BDF800109DF8022049BA73
:103F9000090441EA02239DF803100B433B60BDF87E
:103FA00004109DF8062049BA090441EA02229DF84E
:103FB00007101B140A437A60BDF808109DF80A40E8
:103FC00049BA090441EA04219DF80B401214214327
:103FD000B960BDF80C409DF80EC064BA240444EAF0
:103FE0000C2C9DF80F4009144CEA040CC7F80CC0C7
:103FF0004FEA2C475B43494302FB023207FB0711A0
:1040000011441024A1F17061B1F1007F04D901F0D5
:10401000ABF9A5F800A0AEE7298841F480712980AA
:104020004206694611D50A19A41D13885BBAA8F87F
:10403000003053885BBAA8F80230928852BAA8F8C8
:1040400004202A8842F008022A8010F4C07F11D090
:104050000A19A41D13885BBAA9F8003053885BBA0B
:10406000A9F80230928852BAA9F804202A8842F0AE
:1040700070022A80800716D00C44E07800F0C0055A
:1040800000F03F016078C00706D0C80801F00701C2
:104090003268491C02B190476078000703D5716807
:1040A00009B1A80988470C9800F08CFD002063E74F
:1040B000540100202DE9FF41044603A800F0ECFE66
:1040C000BDF80C00410CC3032F48008900F0030227
:1040D00054F82250420700D56D42C0F3C102860653
:1040E00054F8222000D55242C0F38116C00554F87E
:1040F000264000D56442A5FB0367E81700FB037068
:1041000005FB0100850045EA9670A2FB0367D51701
:1041100005FB037502FB0152950045EA9672A4FB6C
:104120000367E51705FB037304FB01318B0043EACA
:104130009671030E8DF80030030C8DF80130030AE0
:104140008DF802308DF80300100E8DF80400100C6D
:104150008DF80500100A8DF80600080E8DF808008D
:10416000080C8DF80900080A8DF80A008DF8072060
:104170008DF80B106A460C214FF4257001F034FCC9
:1041800004B0BDE8F08100005401002030B50446C1
:1041900013A285B007CA8DE807004FF0FF35C82C81
:1041A00016D8C820B0FBF4F1491E080A8DF80C009F
:1041B0008DF80D1003AA022140F2162001F014FC24
:1041C00030B96A460C2140F6C12001F00DFC10B157
:1041D000284605B030BD054884810020F9E700007D
:1041E000FEF2ABC4AAF1DFDFBBAFDFDF540100207A
:1041F000F8B53049098901F0030250F822404A0716
:1042000000D56442C1F3C1028B0650F8222000D5CC
:104210005242C1F3811350F82330C80500D55B42E8
:10422000254984FB0140850045EA947082FB0142E8
:10423000A40F44EA820483FB0121950F45EA81051E
:10424000010E8DF80010010C8DF80110010A8DF897
:1042500002108DF803006A4604214FF4747001F0D7
:10426000C3FB4FF0FF3688B9200E8DF80000200CFC
:104270008DF80100200A8DF802008DF803406A468F
:1042800004214FF4757001F0AFFB08B13046F8BD62
:10429000280E8DF80000280C8DF80100280A8DF8F2
:1042A00002008DF803506A4604214FF4767001F045
:1042B0009BFBF8BD5401002009E3CA022DE9FF4130
:1042C00004463CA004F00303006802903AA0006892
:1042D00003903AA006683AA0056802A8C15C8DF870
:1042E0000010C4F3C101425C8DF80120C4F38112B7
:1042F000805C8DF8020003A8C35C8DF80430415C3B
:104300008DF80510805C8DF806006A46032140F2A6
:10431000264001F069FB4FF0FF37E0BB01AA032103
:1043200040F22A4001F060FBA8BBCDE900656007C0
:104330000BD59DF8000040F001008DF800009DF8BD
:10434000040040F001008DF80400A0060BD59DF894
:10435000010040F001008DF801009DF8050040F0DB
:1043600001008DF80500E0050BD59DF8020040F036
:1043700001008DF802009DF8060040F001008DF864
:1043800006006A4603214FF4886001F02DFB10B946
:1043900001AA032100E004E040F2314001F024FBD7
:1043A00018B1384604B0BDE8F08106480481002009
:1043B000F8E700004CCD6C000CC92C003656760096
:1043C00026466600540100204FF47A7290FBF2F00A
:1043D00008B54843010E8DF80010010C8DF801104E
:1043E000010A8DF802108DF803006A4604214FF48B
:1043F000AE7001F0F9FA08BD0521B0FBF1F008B587
:10440000010A8DF800108DF801006A4602214FF470
:10441000AD7001F0E9FA08BD0521B0FBF1F008B577
:10442000010A8DF800108DF801006A4602214FF450
:10443000AC7001F0D9FA08BD08B500218DF8001064
:10444000C10702D030218DF80010810705D59DF8F5
:10445000001041F00C018DF80010400705D59DF8C3
:10446000000040F003008DF800006A4601214FF47F
:10447000A47001F0B9FA08BD08B560B1042800D9EC
:104480000420401E8DF800006A46012140F24F10C2
:1044900001F0AAFA08BD0120F3E700002DE9FC4174
:1044A000054640074FF0FF367CD0B1F5C86F79D88C
:1044B0000846FCF720F93E49FBF742FF074601A8F2
:1044C00000F0CCFC9DF80400022806D004280DD092
:1044D00008282ED0102865D134E00E213846FBF78D
:1044E0006DFFFCF737F984B2324907E00D213846F9
:1044F000FBF764FFFCF72EF92F4984B23846FBF72F
:10450000EDFEFCF727F9210A8DF8001080B28DF836
:104510000140010A8DF802108DF80300E8076C468F
:1045200020D0224602214FF4EA7001F05DFAC8BBA8
:1045300011E00C213846FBF741FFFCF70BF984B280
:104540001E49DBE70B213846FBF738FFFCF702F981
:1045500084B21B49D2E7A21C02214FF4927001F0F1
:1045600043FAF8B9A8070DD56A4602214FF4EC705A
:1045700001F03AFAB0B9A21C02214FF4947001F094
:1045800033FA78B9680710D56A4602214FF4EE7005
:1045900001F02AFA30B9A21C02214FF4967001F002
:1045A00023FA10B13046BDE8FC810020FBE7000093
:1045B00000004843000040460000C0450000404560
:1045C0000000C0440521B0FBF1F008B5010A8DF8E8
:1045D00000108DF801006A4602214FF4EF7001F0DF
:1045E00003FA08BD0521B0FBF1F008B5010A8DF80A
:1045F00000108DF801006A4602214FF4ED7001F0C1
:10460000F3F908BD13B54FF0FF33012269460248A4
:10461000FDF73AFB00981CBD100100202DE9FE4378
:104620000646264801AB042240680D210078FDF7BC
:1046300055FD10B10720BDE8FE839DF804101C2035
:1046400000EAD1029DF80710DFF87490C1F301135E
:104650001A438DF800209DF80520C1F3810300EA7C
:10466000D2021A438DF801209DF8062001F00301C3
:1046700000EAD20008430024124F8DF80200A04641
:104680006D46285D10B146F824900AE046F8248073
:104690000DE000BF56F824003946FBF71FFE46F830
:1046A0002400285D401E10F0FF002855F2D1641C44
:1046B000E4B2032CE5D30020BDE700003800002061
:1046C0007B14AE3E1D5A843F2DE9FE4F0546012066
:1046D000C14E8DF800004FF000088DF80180306861
:1046E0000C461746817C70686B4602220078FDF705
:1046F00082FD4FF0FF3A00287AD1C820FCF77CFAFF
:104700008DF8008030686B460122C17B70680078AC
:10471000FDF771FD0028EFD130686B460122417929
:1047200070680078FDF767FD0028E5D130686B46BA
:104730000122817C70680078FDF75DFD0028DBD1E7
:1047400030686B460122C17D70680078FDF753FD2B
:104750000028D1D130686B46012201797068007859
:10476000FDF749FD0028C7D14FF00C098DF80090E6
:1047700030686B460122017970680078FDF73BFDD7
:10478000002835D10F20FCF737FAB06A6B460122BA
:10479000407A8DF800003068817870680078FDF705
:1047A0002AFD002824D1B06A6B460122007A8DF8D8
:1047B00000003068417870680078FDF71CFD002823
:1047C00073D1B06A807A0FB140F0E0008DF800003C
:1047D00030686B460122817970680078FDF70BFD27
:1047E000002862D12FB1B06AC07A40F0E00001E049
:1047F0004AE018208DF8000030686B460122C1792C
:1048000070680078FDF7F7FCF0BB17B1C820FCF723
:10481000F3F940208DF8000030686B4601220179E1
:1048200070680078FDF7E7FC70BB78208DF8000019
:1048300030686B460122417970680078FDF7DBFC37
:1048400010BB3220FCF7D8F98DF80080306847465D
:104850006B464179706801220078FDF7CCFC98B96D
:1048600031687068B046897A00786B460222FDF79D
:1048700035FC48B9BDF80000AF6040BAB0FBF9F0B4
:104880006F60C6B22F6000E00FE0A760676027602E
:10489000002739E0D8F80010D8F804006B46C97A30
:1048A00000780C22FDF71AFC10B15046BDE8FE8FCF
:1048B000BDF80000236840BA00B2BDF80210BDF890
:1048C00004201844206049BA606809B20844606056
:1048D00052BAA06812B21044A060BDF806002B685E
:1048E00040BA01B2BDF80800BDF80A201944296099
:1048F00040BA696800B20844686052BAA86812B247
:1049000010447F1CFFB2A860B742C3D3286883223B
:10491000C117090441EA104100040023FBF726FCFB
:1049200032460023FBF722FC286068688322C11707
:10493000090441EA104100040023FBF717FC32464A
:104940000023FBF713FC6860A8688322C1170904E1
:1049500041EA104100040023FBF708FC3246002323
:10496000FBF704FCA86020684FF40065C117090438
:1049700041EA104100042A460023FBF7F7FB3246C8
:104980000023FBF7F3FB206060682A46C117090487
:1049900041EA104100040023FBF7E8FB3246002304
:1049A000FBF7E4FB6060A0682A46C117090441EAEE
:1049B000104100040023FBF7D9FB32460023FBF72C
:1049C000D5FBA060002802DDA0F5803001E000F5F5
:1049D0008030A060002069E7380000202DE9F84F02
:1049E00081462E488846002540686B4603220078A1
:1049F0000D21FDF773FB10B10720BDE8F88F9DF87E
:104A00000000002400F01F008DF800009DF8010058
:104A10006FF00F0B00F01F008DF801009DF80200F1
:104A20006E4600F01F008DF802004FF0010A00BF33
:104A300059F8241058F82400081A00D54042FBF712
:104A400051FE5946FBF7BAFC0746305DC0B1144829
:104A500002E01449FBF742FC315D491E11F0FF01F1
:104A60003155F6D101463846FBF76AFC4FF07E51CE
:104A7000FBF72EFC0C4920F00040884205DC07E0E3
:104A80000A483844B0F1D97F02D90AFA04F0054344
:104A9000641C032CCCDB2846AFE700003800002064
:104AA0000000C84154E3853F295C0F3E0000E0BE92
:104AB00000B5024600F00DF80346D01C00F009F8DE
:104AC00043EAC003901D00F004F843EA801080B26E
:104AD00000BD90F90010002902DD4FF00000704782
:104AE00002DA4FF00400704790F90110002902DD4E
:104AF0004FF00100704702DA4FF00500704790F95F
:104B00000200002802DD4FF00200704702DA4FF089
:104B1000060070474FF0070070470000FCF7C0F92F
:104B2000FEF737F8FDF790FBFDF7ACFCFDF734FC22
:104B3000FDF786FCFDF779FA0028FBD100F03CF97F
:104B4000FDF761FFFDF7BAFC012219491948FDF78D
:104B500085F8FDF7F0FCFDF7D9FF00211648FCF7BA
:104B600079FF04211448FCF775FF14496FF0010028
:104B7000096808611148FCF753FD114C00250C4AE7
:104B80001032111F081F00F049F80028F7D1084A19
:104B9000921D911E881EFDF72DFAFDF743FF207828
:104BA0000028ECD02570FBF7C6FFFBF7E7FFE6E730
:104BB000140000201001002080000020C800002008
:104BC00000000020704700002DE9F041124C20F059
:104BD0000101002594F8240010B10020BDE8F08107
:104BE000A07A4FF0FF3668B10840277C20748842D5
:104BF00000D0354641B1012001F0ACF800F0B4FB23
:104C000038B127743046E9E7207D00B1012001F07A
:104C1000A1F82846E2E70000380000202DE9F74F10
:104C20008EB00CA902A8CDE900010BAB03AA09A91B
:104C300007A8FFF78DF918B1012011B0BDE8F08F7A
:104C4000BDF80800C0057DD50398FBF74BFD6FF05C
:104C50001D042146FBF7B2FB82460498FBF742FD98
:104C60002146FBF7ABFB81460598FBF73BFD214650
:104C7000FBF7A4FB80460698FBF734FD2146FBF7C3
:104C80009DFB054601215046FBF798FB0646414631
:104C9000FBF724FB04464FF040414846FBF71EFB60
:104CA00007462946FBF71AFB2146FBF7BFFAFBF73D
:104CB00084FDFEF7BFFC4FF0663B5A463D4BFBF7C9
:104CC00030FCFBF78DFD0E99086001214046FBF793
:104CD00075FB41460090FBF701FB04463846494608
:104CE000FBF7FCFA2146FBF7F3FA4FF07E51FBF796
:104CF0009DFAFBF762FD07460C4630464946FBF736
:104D0000EDFA064629460098FBF7E8FA3146FBF72C
:104D10008DFAFBF752FD3A462346FEF7D3FE5A467C
:104D2000244BFBF7FEFBFBF75BFD0F990860294660
:104D30000846FBF7D3FA074641460846FBF7CEFA8A
:104D4000064600E034E049460846FBF7C7FA044649
:104D500051460846FBF7C2FA2146FBF767FA31468F
:104D6000FBF7B6FA3946FBF7B3FAFBF726FD064622
:104D70000C4629465046FBF7B1FA054641464846DF
:104D8000FBF7ACFA2946FBF751FA0121FBF716FBBA
:104D9000FBF713FD32462346FEF794FE5A46054BB9
:104DA000FBF7BFFBFBF71CFD10990860002044E7F0
:104DB000022042E766A64C4010B5FCF7EDFF00F07C
:104DC000F1F808B10A2010BD782000F0B1FD10F014
:104DD000FF0F01D0012010BD7820FFF7F5FE10F085
:104DE000FF0F01D0022010BD642000F061FD10F023
:104DF000FF0F01D0032010BDFFF7A0F810F0FF0F48
:104E000001D0042010BD1448FFF752FEFFF756FAF8
:104E100010F0FF0F01D0052010BD40F27310FEF717
:104E200065FF10F0FF0F01D0062010BD6420FFF7D2
:104E3000ADF910F0FF0F01D0072010BD00F04AFFC0
:104E400008B1082010BD012000F058FC10F0FF0050
:104E5000F8D0092010BD0000640000200D494A7AF6
:104E600042B1012A08D0022A0FD0032A0FD04FF0F6
:104E7000FF307047022200E004220270C97C11B1A9
:104E80001106C90D0170002070470822F5E71022B5
:104E9000F3E70000380000200F494A7A42B1012AA6
:104EA00009D0022A11D0032A12D04FF0FF307047E8
:104EB0004FF4804201E041F69C720280C97C11B13E
:104EC000C2F34E010180002070474FF48052F4E796
:104ED0004FF40062F1E70000380000200B49097A26
:104EE00039B1012907D002290AD003290BD00021AA
:104EF00003E0FA2101E04FF4FA71018000207047CD
:104F00004FF47A71F9E74FF4FA61F6E738000020C0
:104F10000A49097A41B1012908D002290AD0032996
:104F20000AD04FF0FF307047054900E005490160A5
:104F3000002070470449FAE70449F8E738000020E8
:104F40000000034300008342333303423333834181
:104F50000C49C97A072913D2DFE801F01204060AC6
:104F60000C0E1000BC2100E062210180002070477F
:104F70002A21FAE71421F8E70A21F6E70521F4E7E8
:104F80000021F2E738000020054991F8242012B1F1
:104F90004FF0FF307047C989018000207047000042
:104FA000380000202DE9FC414C4C80208DF8000099
:104FB00020686B460122817C60680078FDF71BF950
:104FC0004FF0FF37002832D16420FBF715FE002593
:104FD0008DF8005020686B460122817C6068007863
:104FE000FDF709F9002870D120686B460622817D03
:104FF00060680078FDF772F8002866D19DF805001A
:105000009DF80310C007400F01F0010140EA410183
:105010009DF801004FF0010600F00100014309D0A6
:10502000012905D0022915D02DA0FDF7E5FF4CE0A0
:10503000E67410E020686B460122C1786068007851
:10504000FDF74CF840BB9DF8000010F00F0020D099
:10505000042822D0E574FF2004F80A0F4FF6FF71F0
:1050600004F8020C04F8010C6070A180A071207299
:10507000A67026766576E572A572E56025616561A4
:10508000A576E576A5834FF4FA6000F073FB18B9B6
:1050900007E01D48FDF7B0FF17E01CA0FDF7ACFFCF
:1050A000C6E7022000F088FA78B92A2000F0CAFB8F
:1050B00058B9322000F0FCFB38B90020FFF784FD1E
:1050C00018B9002000F0ACFA10B13846BDE8FC81F8
:1050D000002000F02DFC0020F8E700003800002040
:1050E000556E737570706F7274656420736F66743B
:1050F000776172652070726F647563742072657673
:105100002025642E0A0000006073000848616C6668
:105110002073656E73697469766974792070617241
:105120007420666F756E642E0A0000002DE9FF4F33
:10513000DFF89480064685B098F8250015460F469E
:105140004FF0FF39B0BBAFB3002420E0301B102874
:1051500000DD102080B283463A190146924620466F
:1051600000F042FC30BB6A465946204600F0D2F8B7
:1051700000BB50465A466946FBF74BF820B16FF02A
:10518000010009B0BDE8F08F04EB0B0084B2B4421B
:10519000DCD3280A8DF810008DF81150D8F80000E3
:1051A000444604AB817ED8F8040002220078FDF763
:1051B00022F808B14846E4E7012084F82500089861
:1051C000E0840020DDE70000380000202DE9F843EE
:1051D00005464FF0FF39282844D80727284C0026D9
:1051E0007DB1012000F0FCFA20208DF800004FF086
:1051F0000108012D17D0052D18D88DF80180052044
:105200001FE0002000F0ECFA8DF800608DF80170CE
:1052100020686B460222817C60680078FCF7EBFF17
:1052200000BB267529E08DF80160E8E7142D04D84D
:1052300002208DF801000A2003E003208DF8010010
:10524000142000F0FFFA9DF801006B4607EB801078
:105250008DF8010020680222817C60680078FCF7EC
:10526000CAFF10B14846BDE8F8830820A072267333
:1052700084F814800020FFF7A7FC0020F3E700006B
:10528000380000202DE9F843214C0646174694F8D3
:10529000240089464FF0FF3890B3A07A80B320688D
:1052A0006B460222817A60680078FCF717FF38BBF2
:1052B000BDF8000045BAB54202D2002038701FE0A8
:1052C00060684188B5EB510F11D9216800786B46B1
:1052D000497C0122FCF702FF90B99DF80000C0064E
:1052E00005D500F041F86FF00100BDE8F8832068B3
:1052F000F2B24B46C17A60680078FCF7EFFE08B165
:105300004046F2E7B5FBF6F0401E38700020ECE7AF
:1053100038000020F8B516000D464FF0FF371FD0BB
:10532000104CA17AE1B1010A8DF80010C0B28DF8DD
:105330000100411960684289914211D821680078C2
:105340006B46097E0222FCF756FF48B92068EAB294
:105350003346417D60680078FCF7C0FE002800D02D
:105360003846F8BD38000020F8B5564C4FF0FF36EF
:10537000A07A00287DD000258DF8005020686B466B
:105380000122C17B60680078FCF735FF002870D1EE
:1053900020686B460122417960680078FCF72BFF9A
:1053A000002866D120686B46012201796068007888
:1053B000FCF721FF00285CD194F82400E0B30C2016
:1053C0008DF8000020686B46012201796068007842
:1053D000FCF711FF002872D13220FBF70DFCC02032
:1053E0008DF80000A07AC00702D0E0208DF8000000
:1053F00020686B460122017960680078FCF7FBFEAB
:1054000000285CD1607C18B102208DF8000001E01A
:105410008DF8005020686B460122C17B60680078DF
:10542000FCF7E9FE28BB8DF8005020686B4601228E
:105430004179606800783EE0FFE704208DF80000C5
:1054400020686B460122017960680078FCF7D3FE82
:1054500078B9A07C90B9A07AC0070FD05FF0600047
:105460008DF8000020686B460122017960680078A1
:1054700000E024E0FCF7BFFE08BB01E04020EFE7BE
:105480003220FBF7B9FB607C18B101208DF80000D9
:1054900001E08DF8005020686B460122C17B6068F6
:1054A0000078FCF7A8FE50B92068064B012241792C
:1054B000606810330078FCF79EFE002800D030466C
:1054C000F8BD0000380000202DE9F047394C824635
:1054D0008AB094F824000F4620B1002000F00EF9A5
:1054E000012600E0002607A8FFF7F8FC06A8FFF752
:1054F000B5FC09A8FFF72CFD08A8FFF745FD94F8B7
:105500000A9094F810800025002239465046FFF793
:10551000DBF810B16D1C022DF6DB022D1AD0002530
:10552000012203A96846FFF7CFF810B16D1C022DC8
:10553000F6DB022D0ED003A93846FEF73BF8C7B2C2
:1055400069465046FFF74AFA10F0FF0F4FF000058A
:1055500002D002E0002503E001250FB945F0020565
:10556000FF2020726072E0724FF6FF71E181A0723D
:10557000207401202073BDF81C0000F0FBF89DF89A
:10558000180000F019F8BDF8240000F05BF9BDF830
:10559000200000F08DF9484600F0CAF94046FFF7B8
:1055A00013FB16B1012000F0A9F80AB02846BDE8A7
:1055B000F08700003800002038B5184C4FF0FF3558
:1055C000A17A19B3022806D0042806D008280ED0E4
:1055D00010281BD10DE0002000E008208DF800000D
:1055E000607A9DF80010B0EBD10F04D005E01020D8
:1055F000F4E71820F2E7002038BD20686B4601224E
:10560000C17960680078FCF7F6FD08B1284638BD1E
:105610009DF80000C0086072EDE70000380000202F
:10562000F8B5354C0546A07CA84201D10020F8BD54
:1056300031484FF0FF366B46D0E900104FF00102C1
:105640000979007835B3FCF749FD70BB9DF800007F
:105650006B4620F020008DF80000206801220179BF
:1056600060680078FCF7C7FDF8B90320FBF7C4FABF
:1056700002208DF8000094F8220078B382202BE0FD
:1056800020686B460122017D60680078FCF7B3FD5D
:1056900058B92EE0FCF722FD38B9A07AC0079DF872
:1056A000000003D040F0200002E00CE020F02000D9
:1056B0008DF8000020686B4601220179606800784F
:1056C000FCF799FD08B13046F8BD0320FBF794FACA
:1056D00094F8220000B180208DF8000094F8230097
:1056E0000028CDD09DF8000040F030008DF800007B
:1056F000C6E7A5749AE700003800002038B51C4CB6
:1057000094F8241081421DD0002500B394F82500A0
:10571000D0B1002000F01EFB0020FFF781FFE08CDD
:1057200000F0C6F88DF8005060686B4601220078E2
:105730002321FCF760FD012084F8240000F00AFB1F
:10574000FFF712FE002038BD4FF0FF3038BD0020BB
:1057500000F000FB207C8DF8000060686B460122A1
:1057600000782321FCF747FD84F82450E8E7000087
:105770003800002038B5194C4FF0FF35A17A31B30D
:10578000FA2809D0B0F5FA7F08D0B0F57A7F0FD0AB
:10579000B0F5FA6F1BD10DE0002000E008208DF875
:1057A0000000207A9DF80010B0EBD10F04D005E086
:1057B0001020F4E71820F2E7002038BD20686B467F
:1057C0000122817960680078FCF715FD08B1284650
:1057D00038BD9DF80000C0082072EDE738000020B9
:1057E00038B5174C054694F82300A84201D1002093
:1057F00038BD0DB1302000E000208DF80000A07C05
:1058000028B19DF8000040F002008DF8000094F8E7
:10581000220028B19DF8000040F080008DF80000C3
:1058200020686B460122017D60680078FCF7E3FC8C
:1058300010B14FF0FF3038BD84F82350D7E7000097
:105840003800002038B5194C4FF0FF35A17A31B33C
:10585000BC2801D3012010E0622801D302200CE013
:105860002A2801D3032008E0142801D3042004E0EF
:105870000A2801D3052000E006208DF80000E07A18
:105880009DF80010884201D1002038BD20686B4689
:105890000122817860680078FCF7ADFC08B12846E9
:1058A00038BD9DF80000E072EEE7000038000020EF
:1058B000F8B51E4D04464FF0FF37A87A48B395F867
:1058C000240030BB287D4FF47A7648B164B1282C8F
:1058D00003D8E0B2FFF77AFC26E00020FFF776FC61
:1058E000042C05D2042406E00020FFF76FFCF9E742
:1058F000B44200D93446B6FBF4F0401E8DF80000E7
:1059000028686B460122417868680078FCF773FCD0
:1059100008B13846F8BD9DF80000401CB6FBF0F019
:10592000E8814008FFF78EFF0020F8BD3800002016
:10593000F8B5054610F0700F4FF0000601D00120B9
:1059400004E015B18DF8006002E040208DF8000001
:10595000244C6B4601222068817C60680078FCF74B
:105960004AFC4FF0FF3760BB9DF8000020F040007C
:1059700020738DF80060680602D404208DF80000C2
:10598000A80605D49DF8000040F002008DF8000044
:10599000E80605D49DF8000040F001008DF80000F5
:1059A000280705D49DF8000040F038008DF800006D
:1059B00020686B460122C17C60680078FCF71BFC04
:1059C00010B1A6723846F8BD25B1082D02D00020CE
:1059D000FFF706FFA57226753220FBF70DF90020B0
:1059E000F8BD000038000020F8B516000D464FF055
:1059F000FF371FD0104CA17AE1B1010A8DF80010D9
:105A0000C0B28DF80100411960684289914211D8F5
:105A1000216800786B46097E0222FCF7ECFB48B94E
:105A20002068EAB23346417D60680078FCF7E3FB0A
:105A3000002800D03846F8BD3800002070B5144D5D
:105A40004FF48074002221462846FBF716FA2A1DDF
:105A5000106820F0F0001060106840F03000106016
:105A6000002261002846FBF708FA0220FEF7F8F84A
:105A7000012221462846FBF700FA0220FEF7F0F843
:105A800021462846BDE870400022FBF7F6B9000029
:105A9000000C014070B51548016821F0F00101606B
:105AA000016841F0300101608415051F0022214684
:105AB0002846FBF7E2F9012251022846FBF7DDF9FF
:105AC0000220FEF7CDF8012221462846FBF7D5F942
:105AD0000220FEF7C5F8002221462846FBF7CDF943
